:100000000C9454050C947C050C947C050C947C0594
:100010000C947C050C947C050C947C050C94AC1819
:100020000C947C050C947C050C947C050C947C054C
:100030000C947C050C947C050C947C050C947C053C
:100040000C9462180C947C050C942E190C940819CD
:100050000C947C050C947C050C947C050C947C051C
:100060000C9460190C947C0500000000003E5B4F6E
:100070005B3E3E6B4F6B3E1C3E7C3E1C183C7E3C08
:10008000181C577D571C1C5E7F5E1C00183C180016
:10009000FFE7C3E7FF0018241800FFE7DBE7FF30A6
:1000A000483A060E2629792926407F050507407F14
:1000B00005253F5A3CE73C5A7F3E1C1C08081C1C87
:1000C0003E7F14227F22145F5F005F5F06097F017D
:1000D0007F006689956A606060606094A2FFA29468
:1000E00008047E040810207E201008082A1C080836
:1000F0001C2A08081E101010100C1E0C1E0C303884
:100100003E3830060E3E0E06000000000000005F84
:1001100000000007000700147F147F14242A7F2AA0
:100120001223130864623649562050000807030062
:10013000001C2241000041221C002A1C7F1C2A08AE
:10014000083E080800807030000808080808000011
:1001500060600020100804023E5149453E00427F85
:10016000400072494949462141494D331814127FD4
:100170001027454545393C4A494931412111090774
:100180003649494936464949291E000014000000F5
:1001900040340000000814224114141414140041C7
:1001A00022140802015909063E415D594E7C121184
:1001B000127C7F494949363E414141227F414141BC
:1001C0003E7F494949417F090909013E4141517337
:1001D0007F0808087F00417F41002040413F017FA8
:1001E000081422417F404040407F021C027F7F0470
:1001F00008107F3E4141413E7F090909063E4151B9
:10020000215E7F09192946264949493203017F01A8
:10021000033F4040403F1F2040201F3F4038403FA9
:10022000631408146303047804036159494D4300BF
:100230007F4141410204081020004141417F0402F6
:10024000010204404040404000030708002054548D
:1002500078407F284444383844444428384444286B
:100260007F385454541800087E090218A4A49C78BE
:100270007F0804047800447D40002040403D007F1A
:100280001028440000417F40007C047804787C08FA
:100290000404783844444438FC18242418182424CE
:1002A00018FC7C08040408485454542404043F44B3
:1002B000243C4040207C1C2040201C3C4030403CE2
:1002C00044281028444C9090907C4464544C440042
:1002D00008364100000077000000413608000201A6
:1002E0000204023C2623263C1EA1A161123A404092
:1002F000207A38545455592155557941225454780F
:1003000042215554784020545579400C1E527212A7
:100310003955555559395454545939555454580030
:1003200000457C410002457D420001457C407D1234
:1003300011127DF0282528F07C5455450020545496
:100340007C547C0A097F4932494949323A44444441
:100350003A324A4848303A4141217A3A424020787C
:10036000009DA0A07D3D4242423D3D4040403D3C7D
:1003700024FF2424487E4943662B2FFC2F2BFF09A2
:1003800029F620C0887E0903205454794100004496
:100390007D413048484A32384040227A007A0A0A81
:1003A000727D0D19317D2629292F282629292926F4
:1003B00030484D4020380808080808080808382F39
:1003C00010C8ACBA2F102834FA00007B00000814C3
:1003D0002A142222142A14085500550055AA55AA99
:1003E00055AAFF55FF55FF000000FF00101010FF39
:1003F00000141414FF001010FF00FF1010F010F094
:10040000141414FC001414F700FF0000FF00FF1484
:1004100014F404FC141417101F10101F101F1414D0
:10042000141F00101010F0000000001F101010101A
:100430001F10101010F010000000FF10101010100E
:1004400010101010FF10000000FF140000FF00FF4C
:1004500000001F10170000FC04F4141417101714E8
:1004600014F404F40000FF00F7141414141414140A
:10047000F700F7141414171410101F101F1414147D
:10048000F4141010F010F000001F101F0000001FE7
:1004900014000000FC140000F010F01010FF10FF1A
:1004A000141414FF141010101F00000000F010FFAF
:1004B000FFFFFFFFF0F0F0F0F0FFFFFF0000000093
:1004C00000FFFF0F0F0F0F0F3844443844FC4A4A17
:1004D0004A347E02020606027E027E0263554941CC
:1004E000633844443C04407E201E2006027E020203
:1004F00099A5E7A5991C2A492A1C4C7201724C3017
:100500004A4D4D303048784830BC625A463D3E49ED
:100510004949007E0101017E2A2A2A2A2A44445F91
:10052000444440514A444040444A51400000FF0185
:1005300003E080FF000008086B6B08361236243693
:10054000060F090F060000181800000010100030F8
:1005500040FF0101001F01011E00191D1712003C80
:100560003C3C3C0000000000000103070F1F3F7FE0
:100570000080C0E0F0F8FCFEDB40A4A62EAF200017
:10058000A1C8D300408DAED580A800006000000057
:100590000000000000000000000000E0000000007B
:1005A00000000000000000000001E000000000006A
:1005B000000000000000000001F00000000000004A
:1005C0000000000000000003F00000000000000038
:1005D00000000000000007F0000000000000000024
:1005E000000000000007F80000000000000000000C
:1005F000000000000FF800000003C0007E000001B2
:10060000E0007F0FF800000003C000FE000001E0E2
:1006100000FFEFF800000003C000FE000001E00052
:10062000FFFFF800000003C000F00000000F007F93
:10063000FE7FC0000003C000F00000000F003FFE7E
:100640007FF83FF1FBCFFCFEF3BC3DEFE01FFE7FE8
:10065000FF7FFBFFDFFEFEFFBC3DEFE01FC6FFFF9D
:100660007FFBFFDFFEFEFFBC3DEFE00FE3C7FE7840
:100670007BC3DE1EF0FFBC3DEF0007FF87FC787BED
:10068000C3DE1EF0F83C3DEF0001FFFFF0007BC32E
:10069000C01EF0F03C3DEF0001F37FE03FFBC3CF15
:1006A000FEF0F03C3DEF0003E33F807FFBC3DFFE45
:1006B000F0F03C3DEF0007E73C00787BC3DE1EF026
:1006C000F03C3DEF0007FFBE00787BC3DE1EF0F07C
:1006D0003C3DEF0007FFFE00787BC3DE1EF0F03CE0
:1006E0003DEF000FFFFE007FFBFFDFFEF0F03FFD60
:1006F000EFE00FFFFF007FFBFFDFFEF0F03FFDEFBD
:10070000E00FF9FF003E79F9CF9EF0F01F3DE7E0E2
:100710001FF1FF0000000000000000000000001FAB
:1007200080FF007FFFFFFFFFFFFFFFFFFFE01C00D8
:100730007F007FFFFFFFFEB46D888D18E000001F73
:10074000007FFFFFFFFE95AD7DB577E000000F0055
:100750007FFFFFFFFEA5AD9D8D19E0000006007F25
:10076000FFFFFFFEB5ADEDB57EE00000000000012B
:100770008000000000000000000003800000000076
:10078000000000000007C0000000000000000000A2
:1007900007C00000000000000000000FC0000000C3
:1007A0000000000000001FE000000000000000004A
:1007B000001FE00000000000000000003FE000001B
:1007C000000000000000003FF000000000000000FA
:1007D00000007FF0000000000000001FF87FF00024
:1007E0000000000000003FFE7FF00000000000005D
:1007F000003FFF7FF0000000000000001FFFFBE053
:10080000000000000000000FFFF9FFC00000000022
:1008100000000FFFF9FFF800000000000007FFF1E3
:10082000FFFF00000000000003FC73FFFF800000DA
:1008300000000001FE3FFFFF80000000000000FFFD
:100840001E0FFF000000000000007FFE1FFC0000E4
:1008500000000000003FFFFFF80000000000000063
:100860000FDFFFE0000000000000001F19FFC000C4
:100870000000000000003F3CFF00000000000000FE
:10088000007E7CF800000000000000007FFE7C007D
:1008900000000000000000FFFFFC0000000000005E
:1008A0000000FFFFFE0000000000000000FFFFFE50
:1008B0000000000000000001FFEFFE00000000004B
:1008C000000001FFCFFE0000000000000003FF0752
:1008D000FE0000000000000003FC07FE0000000016
:1008E00000000003F003FE00000000000000018093
:1008F00000FE000000000000000000007E0000007C
:10090000000000000000003E0000000000000000A9
:1009100000000C000000000000078000FC00000345
:10092000C0000000078001FC000003C000000007B9
:100930008001FC000003C0000000078001E000000F
:10094000001E000000078001E00000001E007FE3A1
:10095000F79FF9FDE7787BDFC0FFF7FFBFFDFDFFE5
:10096000787BDFC0FFF7FFBFFDFDFF787BDFC0F0C6
:10097000F787BC3DE1FF787BDE00F0F787BC3DE107
:10098000F0787BDE0000F787803DE1E0787BDE00D9
:100990007FF7879FFDE1E0787BDE00FFF787BFFDF3
:1009A000E1E0787BDE00F0F787BC3DE1E0787BDEBC
:1009B00000F0F787BC3DE1E0787BDE00F0F787BC14
:1009C0003DE1E0787BDE00FFF7FFBFFDE1E07FFB6C
:1009D000DFC0FFF7FFBFFDE1E07FFBDFC07CF3F38B
:1009E0009F3DE1E03E7BCFC0000000000000000022
:1009F000000000FFFFFFFFFFFFFFFFFFFFC0FFFF43
:100A0000FFFFFD68DB111A31C0FFFFFFFFFD2B5A0E
:100A1000FB6AEFC0FFFFFFFFFD4B5B3B1A33C0FFDC
:100A2000FFFFFFFD6B5BDB6AFDC053534431333086
:100A30003620616C6C6F636174696F6E20666169EA
:100A40006C65640000000000240027002A000000FC
:100A50000000230026002900000000080002010019
:100A60000003040700000000000000002200FF2136
:100A70000102040810204080010204081020010235
:100A80000408102000000000250028002B000404AA
:100A90000404040404040202020202020303030326
:100AA00003030200C41A362111241FBECFEFD8E081
:100AB000DEBFCDBF11E0A0E0B1E0E8ECF5E402C09C
:100AC00005900D92A43DB107D9F723E0A4EDB1E064
:100AD00001C01D92A33BB207E1F715E0C3E5D5E0E5
:100AE00004C02197FE010E949121C235D107C9F7A8
:100AF0000E94471B0C94D7220C9400000895833069
:100B000081F028F4813099F08230A9F0089587307F
:100B1000A9F08830C9F08430B1F4809180008F7DD5
:100B200003C0809180008F7780938000089584B502
:100B30008F7784BD089584B58F7DFBCF8091B00001
:100B40008F778093B00008958091B0008F7DF9CFAA
:100B5000CF93DF93282F30E0F901E85AF54F8491C5
:100B6000F901E059F54FD491F901E257F54FC491DD
:100B7000CC23A1F081110E947F05EC2FF0E0EE0F55
:100B8000FF1FE25BF54FA591B491EC91ED2381E05D
:100B900090E009F480E0DF91CF91089580E090E04B
:100BA000FACF1F93CF93DF93282F30E0F901E85A53
:100BB000F54F8491F901E059F54FD491F901E257CD
:100BC000F54FC491CC23A9F0162F81110E947F0507
:100BD000EC2FF0E0EE0FFF1FEC57F54FA591B4910D
:100BE0008FB7F894EC91111108C0D095DE23DC93F7
:100BF0008FBFDF91CF911F910895DE2BF8CFCF9358
:100C0000DF9390E0FC01E059F54F24918257954F16
:100C1000FC0184918823C9F090E0880F991FFC01A2
:100C2000EC5BF54FA591B491FC01EC57F54FC591E4
:100C3000D49161110DC09FB7F8948C9120958223B7
:100C40008C938881282328839FBFDF91CF910895BB
:100C5000623051F49FB7F8943C91822F80958323A2
:100C60008C93E8812E2BEFCF8FB7F894EC912E2B3D
:100C70002C938FBFEACF4F925F926F927F928F92A9
:100C80009F92AF92BF92CF92DF92EF92FF920F931B
:100C90001F93CF938C016A017B0180910C018930F5
:100CA00099F08F3F09F45CC0CF911F910F91FF9095
:100CB000EF90DF90CF90BF90AF909F908F907F90FC
:100CC0006F905F904F900895E2EAFAE0C491C7FDFB
:100CD000EBCF61E089E00E94FF052801712C612CB7
:100CE000CC23F1F0980150E040E0C23009F0A7C0F9
:100CF00028013A0160E970ED83E090E00E946721ED
:100D000049015A0181E0881A9108A108B10893E0CD
:100D10008FEF88169104A104B10409F00CF4DDC032
:100D200068E478EE81E090E0A30192010E946721DF
:100D300049015A0181E0881A9108A108B10894E09C
:100D4000C111CBC085B5887F836085BD2FEF3FEF94
:100D5000A901C114D104E104F10409F4D2C08DC089
:100D600089E080930C01E2EAFAE0C491CF3F09F4F4
:100D70009BCFC13021F150F0C23009F43EC0C7FD15
:100D800093CF61E089E00E94FF05ACCF14BC15BC95
:100D900084B5826084BD85B5816085BDE7E9FAE0F0
:100DA000E491F0E0EE0FFF1FEC57F54F8591949121
:100DB000E9E7FAE0E491E093B902C0E08ACF10924B
:100DC0008000109281008091810088608093810072
:100DD00080918100816080938100E7E9FAE0E491ED
:100DE000F0E0EE0FFF1FEC57F54F85919491E9E786
:100DF000FAE0E491E093B8026CCF1092B000109248
:100E0000B1008091B00082608093B0008091B10009
:100E100081608093B100E7E9FAE0E491F0E0EE0F41
:100E2000FF1FEC57F54F859194919093B7028093F3
:100E3000B602E9E7FAE0E491E093B5024ACF60E058
:100E400072E18AE790E00E94672149015A0181E03E
:100E5000881A9108A108B108C13009F044C08091F6
:100E60008100887F8160809381002FEF3FEFA9018F
:100E7000C114D104E104F10471F0D801AA0FBB1F21
:100E8000A70196010E94862128EE33E040E050E061
:100E90000E94452130C09092890080928800209362
:100EA000BE023093BF024093C0025093C1028091B2
:100EB0006F00826080936F00F7CE8092B300209322
:100EC000BA023093BB024093BC025093BD028091A2
:100ED0007000826080937000E7CE8091B100887FBF
:100EE000892B8093B1002FEF3FEFA901C114D104EA
:100EF000E104F10411F6C13071F2C230F1F2C11116
:100F0000D3CE87BC2093C2023093C3024093C40265
:100F10005093C50280916E00826080936E00C4CEB3
:100F20003FB7F8948091AD029091AE02A091AF02CC
:100F3000B091B00226B5A89B05C02F3F19F00196CD
:100F4000A11DB11D3FBFBA2FA92F982F8827BC0123
:100F5000CD01620F711D811D911D42E0660F771F4B
:100F6000881F991F4A95D1F708958F929F92AF924B
:100F7000BF92CF92DF92EF92FF924B015C010E94F1
:100F800090076B017C010E9490076C197D098E0906
:100F90009F09683E734081059105A8F321E0821AFC
:100FA0009108A108B10888EEC80E83E0D81EE11CA4
:100FB000F11C81149104A104B10429F7FF90EF9072
:100FC000DF90CF90BF90AF909F908F90089508953D
:100FD000089590910C0189130BC0E2EAFAE0E491C4
:100FE0009FEF90930C01E13049F028F0E23061F07E
:100FF00060E00C94D10510926E00FACF90916F00D2
:101000009D7F90936F00F4CF909170009D7F90939F
:10101000700091E09093B0009091B100987F94603F
:101020009093B1001092B300E3CFAF92BF92CF92F2
:10103000DF92EF92FF920F931F93CF93DF936C0198
:101040007B018B01040F151FEB015E01AE18BF0879
:10105000C017D10759F06991D601ED91FC9101902B
:10106000F081E02DC6010995892B79F7C501DF9143
:10107000CF911F910F91FF90EF90DF90CF90BF9095
:10108000AF900895FC01538D448D252F30E0842FBF
:1010900090E0821B930B541710F0CF9608950197A0
:1010A0000895FC01918D828D981761F0A28DAE0F8D
:1010B000BF2FB11D5D968C91928D9F5F9F73928F14
:1010C00090E008958FEF9FEF0895FC01918D828D40
:1010D000981731F0828DE80FF11D858D90E008950D
:1010E0008FEF9FEF0895FC01918D228D892F90E065
:1010F000805C9F4F821B91098F739927089586EC1E
:1011000092E00E94730821E0892B09F420E0822FED
:10111000089580E090E0892B29F00E947F088111DA
:101120000C9400000895FC01A48DA80FB92FB11DE7
:10113000A35ABF4F2C91848D90E001968F7399270D
:10114000848FA689B7892C93A089B1898C918370EB
:1011500080648C93938D848D981306C00288F389E4
:10116000E02D80818F7D80830895EF92FF920F9311
:101170001F93CF93DF93EC0181E0888F9B8D8C8D43
:1011800098131AC0E889F989808185FF15C09FB737
:10119000F894EE89FF896083E889F98980818370FA
:1011A000806480839FBF81E090E0DF91CF911F91A9
:1011B0000F91FF90EF900895F62E0B8D10E00F5FCA
:1011C0001F4F0F731127E02E8C8D8E110CC00FB6A0
:1011D00007FCFACFE889F989808185FFF5CFCE0138
:1011E0000E949308F1CFEB8DEC0FFD2FF11DE35A18
:1011F000FF4FF0829FB7F8940B8FEA89FB898081BB
:101200008062CFCFCF93DF93EC01888D8823B9F034
:10121000AA89BB89E889F9898C9185FD03C0808101
:1012200086FD0DC00FB607FCF7CF8C9185FFF2CF7E
:10123000808185FFEDCFCE010E949308E9CFDF9139
:10124000CF910895EF92FF920F931F93CF93DF9367
:10125000EC01EC80FD806E157F050CF070C057FF2F
:1012600004C0240F351F50E040E08E819F81FA01B9
:10127000E20FF31F8E179F071CF49C01241B350BF4
:10128000121613060CF05BC0922F842F869586955C
:1012900086958E9DD0018F9DB00D11246A0F7B1F06
:1012A000AF8DB8A1A60FB71F477049F188E0841B26
:1012B000482F682F70E0FB01E059FA4FE49128179E
:1012C00008F063C0621B71092FEF30E002C0359552
:1012D00027956A95E2F7E2230130110539F0B0F164
:1012E0000230110561F58C91E82702C08C91E82B42
:1012F000EC93941720F12C813D81A20FB31FE92FAD
:10130000E41BE83078F00230110521F58E2F9C9116
:1013100090959C932C813D81A20FB31F88508830FB
:10132000B0F7E770EE2359F0F0E0E859FA4FE49196
:1013300001301105F9F010F10230110519F1DF91BA
:10134000CF911F910F91FF90EF900895E0958C91B0
:10135000E823CECF81E00115110509F480E08195E5
:101360009E2F8C932C813D81A20FB31F98509830F3
:10137000C0F7D7CF8C91E82BEC93E1CFE0958C911F
:10138000E823FACF8C91E827F7CF0130110509F453
:10139000ADCFE0F20230110509F4A5CFAE0DBF1DAF
:1013A000AECF0F931F93CF93DF9377FF04C0260F29
:1013B000371F70E060E0DC011496CD91DC91FB01F9
:1013C000E20FF31FCE17DF071CF49E01261B370B1D
:1013D000121613064CF5FA0157FD3796A3E0F59562
:1013E000E795AA95E1F7EC9FD001ED9FB00DFC9F2A
:1013F000B00D11246A0F7B1FDC015F96ED91FC910B
:10140000E60FF71F4770552781E090E001C0880F75
:101410004A95EAF7482F0130110559F0A8F02E0F30
:101420003F1F02301105E1F0DF91CF911F910F9125
:1014300008952E0F3F1FE217F307B1F38191DF01EB
:101440001197842B8C93F7CF80952E0F3F1FE217B7
:10145000F30751F39191DF01119798239C93F7CFF4
:10146000E217F30709F38191DF01119784278C9329
:10147000F7CF0F931F93FA01DC0156964C915697C4
:101480004230E9F04330A1F1413061F514964D91BD
:101490005C91DA01AE1BBF0BFD01E21BF30B77FD84
:1014A0000BC0DC0116964D915C916417750724F40E
:1014B000AB01BF010E94D1091F910F9108951496AD
:1014C0004D915C91DA01A61BB70BBD01615071090A
:1014D000DC0116964D915C91DA01AE1BBF0BFD014C
:1014E000E21BF30B77FDE8CFAF010E942209E4CFA6
:1014F00016964D915C91DA01A61BB70BBD016150A8
:101500007109CDCF0F931F93FA01DC0156964C91D0
:1015100056974230A9F0433091F1413019F51496B5
:101520004D915C91DA01AE1BBF0BFD013197F7FDC8
:1015300004C0AB01BF010E9422091F910F910895C1
:1015400014964D915C91DA01A61BB70BBD01DC012D
:1015500016964D915C91DA01AE1BBF0BFD013197E0
:10156000621B730BF7FDE9CFDC0116964D915C9180
:10157000E417F50714F7AF010E94D109DECF1696E4
:101580004D915C91DA01A61BB70BBD01621B730B79
:10159000CECFFC0177FD64C08085918568177907FF
:1015A0000CF05EC057FD5CC08285938548175907D3
:1015B0000CF056C086898230B1F0833029F1813039
:1015C00041F484819581841B950BAB01BC01615072
:1015D00071092130310509F108F443C02230310589
:1015E00009F463C0089584819581DC01A61BB70BC3
:1015F000BD016150710986819781DC01A41BB50B87
:10160000AD0141505109E5CF86819781861B970B2B
:10161000BA01AC0141505109DCCFCA0157FD079610
:10162000A3E095958795AA95E1F7A481B5818A9F56
:1016300090018B9F300D9A9F300D1124620F731F04
:10164000078CF0A1E02DE60FF71F4770552721E02A
:1016500030E001C0220F4A95EAF78081822B808317
:101660000895CA0157FD079633E0959587953A95F9
:10167000E1F7A481B5818A9F90018B9F300D9A9FDD
:10168000300D1124620F731F078CF0A1E02DE60FBF
:10169000F71F4770552781E090E001C0880F4A95F9
:1016A000EAF7809590818923DACFCA0157FD079622
:1016B00023E0959587952A95E1F7A481B5818A9FC6
:1016C00090018B9F300D9A9F300D1124620F731F74
:1016D000078CF0A1E02DE60FF71F4770552721E09A
:1016E00030E001C0220F4A95EAF780818227B7CF08
:1016F00008958EBD00000DB407FEFDCF8EB5089590
:101700008CBD9DBD08950895FC016370668B848136
:10171000958126813781613039F0633029F09187D6
:101720008087338722870895318720879387828730
:1017300008952F923F924F925F926F927F928F9275
:101740009F92AF92BF92CF92DF92EF92FF920F9350
:101750001F93CF93DF93CDB7DEB76A970FB6F89498
:10176000DEBF0FBECDBF9A8F898F7A8369834A010E
:10177000D22E18870F833701BC2CDC0159962D918E
:101780003C915A972115310509F015C118968D9194
:101790009C911997681779070CF0D7C11A968D910B
:1017A0009C91481759070CF0D0C14C2C512CB6E035
:1017B000CB9E600D711D11247C876B871616170652
:1017C0000CF0C3C1EA2DF0E0FA87E98793E0EE0F51
:1017D000FF1F9A95E1F7F88BEF87CF01840F951FD4
:1017E000181619060CF0B1C1A98DBA8D58968C91B6
:1017F000811104C0BFEABD1508F4D394A98DBA8D38
:10180000ED91FC9111970284F385E02DCD010995AE
:10181000B5E0DB9EC0011124E981FA81FC83EB83F2
:10182000312C212C9C0128593F4F388F2F8B4A2D6A
:1018300050E05E8B4D8BEF89F88DE20DF31D4491E6
:101840009E828D82D12CC12C69817A81620D731D9B
:101850007A8B698B842F90E09C8B8B8BE98DFA8D32
:10186000A081B18140FF82C0F1E0BF126FC0AF1212
:101870006DC01C96ED91FC912F813885A4014C0D13
:101880005D1D69897A89898D9A8D0995EB89FC8915
:10189000F595E7954E2F5FEFC51AD50A6D817E81CC
:1018A0008D899E89680F791F7E836D8398E0C916A4
:1018B000D10481F6AFEF2A1A3A0AEB81FC81E40DDC
:1018C000F51DFC83EB83F5E02F16310409F0B3CF4F
:1018D0002F81388526153705B9F0A98DBA8DED9180
:1018E000FC91B1E0BB1257C0AB1255C069817A813F
:1018F0006B5F7F4F0088F189E02D830128E030E0A5
:10190000A401898D9A8D0995A98DBA8DED91FC91CF
:1019100011970688F789E02DCD016A960FB6F894E5
:10192000DEBF0FBECDBFDF91CF911F910F91FF9012
:10193000EF90DF90CF90BF90AF909F908F907F906F
:101940006F905F904F903F902F9009941E96ED916D
:10195000FC91EF80F88409851A8592014D815E81A2
:101960006B817C81898D9A8D099590CF2F813885E7
:101970002615370509F48ACF31E0B31207C0A31248
:1019800005C01C96ED91FC91930178CF1E96ED91C8
:10199000FC917301E0CF6B857C8564197509068421
:1019A000F785E02D73010F8518899201A401898DB7
:1019B0009A8D0995A9CFF901349694913297459162
:1019C0005491D91AB7E0DB9E400D511D1124F90145
:1019D000259134913C8B2B8BFA0125903490FA01A0
:1019E0003296749031963491398B32966490319658
:1019F000449041E04C1518F04A1508F07FC0662D60
:101A0000062C000C770B7C836B83842D042C000C3C
:101A1000990B9E838D83A98DBA8DED91FC911197C1
:101A20000284F385E02DCD010995512CD12CC12CD8
:101A3000EA2DF0E0FA87E9872B2D30E03C872B87F1
:101A4000A401440D511D47FC5A95588F4F8B698155
:101A50007A81660D711D67FC7A957E876D8779891D
:101A6000C71608F051CF2C2D30E04D815E81420F1A
:101A7000531FA985BA854A9FC0014B9F900D5A9F5D
:101A8000900D1124FC01E80DF91DF88BEF87852DD1
:101A9000612C4F89588D420F531F5E8B4D8B6714FD
:101AA00008F050C044244394480E877041F4C101AB
:101AB0000196EB89FC89E20DF31DD4901C01D7FE41
:101AC00019C0A98DBA8DED91FC91662D70E0B1E041
:101AD000BB1219C0AB1217C02D853E85620F731F54
:101AE0000484F585E02D2F8138854D895E89898DA7
:101AF0009A8D0995DD0C6394842DD1CF1E821D82B1
:101B00001C821B8288CF4B815C81640F751FAB8563
:101B1000BC856A9FC0016B9F900D7A9F900D112428
:101B200069817A81680F791F0684F785E02DEF803F
:101B3000F88409851A859D014F855889898D9A8D6C
:101B40000995D8CF570CC3948ACF6A960FB6F894EC
:101B5000DEBF0FBECDBFDF91CF911F910F91FF90E0
:101B6000EF90DF90CF90BF90AF909F908F907F903D
:101B70006F905F904F903F902F9008958F929F921B
:101B8000AF92CF92EF92FF920F931F93CF93DF9379
:101B9000EC01262F898D9A8D009709F051C06A308B
:101BA000D1F41D861C868D8948E0849F9001112404
:101BB0008E859F85820F931F9F878E8781E090E09F
:101BC000DF91CF911F910F91FF90EF90CF90AF9049
:101BD0009F908F9008956D3089F3CC88AD888F8960
:101BE0008823C1F08C859D8536E0C39E800D911DB4
:101BF0001124488559854817590764F44E855F8537
:101C00001D861C8638E0A39EC0011124840F951FF9
:101C10009F878E87EA88FB88088919894E855F85AA
:101C20006C857D85CE010E94990B2C898C859D85C4
:101C300046E0249F800D911D11249D878C87BECF87
:101C40006A3069F41D861C86FC013896E4912D8962
:101C50008E859F85E29F800D911D1124ADCF6D3043
:101C600009F4ACCFFC0134963491631708F4A6CF85
:101C70003296E491E61708F4A1CFFC0132968590E4
:101C80009490462F431B342F47E0349F800C911CC7
:101C90001124F401329634913196E4913323A9F161
:101CA000EE2399F1CC88F4013596E491AD884F8903
:101CB000442301F10E2E000CFF0BE30FF11DCE9E0D
:101CC000A001CF9E500D11246C857D85460F571FB6
:101CD00068857985641775076CF44E855F851D8668
:101CE0001C86FC013896E491AE9E400D511D1124D6
:101CF0005F874E87EA88FB88088919894E855F854A
:101D00006C857D85CE010E94990BF4013496E49197
:101D10002C898C859D85E29F800D911D11248DCF8E
:101D20006F927F928F929F92AF92BF92CF92DF92EB
:101D3000EF92FF920F931F93CF93DF93EC016B0110
:101D40005A0139014801E881F9810284F385E02DC7
:101D50000995E881F9810288F389E02D87019301D3
:101D6000A501B601CE010995A501480D591D4150A7
:101D70005109E881F9810288F389E02D9301B601C8
:101D8000CE010995E881F9810088F189E02D94015F
:101D9000A501B601CE010995C60CD71CB60161504C
:101DA0007109E881F9810088F189E02D9401A5018C
:101DB000CE010995E881F9810688F789E02DCE01E9
:101DC000DF91CF911F910F91FF90EF90DF90CF9017
:101DD000BF90AF909F908F907F906F9009946F927B
:101DE0007F928F929F92AF92BF92CF92DF92EF92AB
:101DF000FF920F931F93CF93DF935C01EB016A0176
:101E0000490138018701DC01ED91FC9162177307EC
:101E100019F5641675062CF0962D872D3A01C92EFA
:101E2000D82E9601261937092F5F3F4F048CF58D68
:101E3000E02DA301BE01C5010995DF91CF911F914E
:101E40000F91FF90EF90DF90CF90BF90AF909F9059
:101E50008F907F906F9008954615570591F426173F
:101E6000370724F0892D4B01C22FD82F9E01281946
:101E700039092F5F3F4F068CF78DE02DA601B40185
:101E8000DACF0284F385E02D0995D501ED91FC911F
:101E90000488F589E02D83019401A601BE01C501E6
:101EA0000995D501ED91FC910688F789E02DC501D2
:101EB000DF91CF911F910F91FF90EF90DF90CF9026
:101EC000BF90AF909F908F907F906F900994EF920A
:101ED000FF920F931F93DC011A960D911C911B9793
:101EE00018962D913C911997ED91FC9100A0F1A1CC
:101EF000E02D7B0150E040E070E060E009951F912B
:101F00000F91FF90EF9008954F925F926F927F92A2
:101F10008F929F92AF92BF92CF92DF92EF92FF92F9
:101F20000F931F93CF93DF936C012B015A0139015B
:101F30004801DC01ED91FC910284F385E02D0995C7
:101F4000E201640C751CD601ED91FC91C615D70514
:101F50005CF40088F189E02D87019401A501BE01A0
:101F6000C60109952196EFCF0688F789E02DC601B5
:101F7000DF91CF911F910F91FF90EF90DF90CF9065
:101F8000BF90AF909F908F907F906F905F904F9099
:101F900009948F929F92AF92BF92CF92DF92EF926D
:101FA000FF920F931F93CF93DF93EC015B014A01E4
:101FB0006901E881F9810284F385E02D0995950195
:101FC0002C0D3D1D21503109E881F9810488F589E6
:101FD000E02D78018401A401B501CE010995E881C5
:101FE000F9810688F789E02DCE01DF91CF911F910D
:101FF0000F91FF90EF90DF90CF90BF90AF909F90A8
:102000008F9009948F929F92AF92BF92CF92DF925E
:10201000EF92FF920F931F93CF93DF93EC015B013D
:102020004A0169017801E881F9810284F385E02D94
:102030000995C80CD91C860101501109E881F98164
:102040000488F589E02D9501A401B501CE0109951B
:10205000E881F9810688F789E02DCE01DF91CF91E3
:102060001F910F91FF90EF90DF90CF90BF90AF90B6
:102070009F908F900994EF92FF920F931F93DC0132
:10208000ED91FC9100A0F1A1E02D09951F910F9118
:10209000FF90EF9008950F931F93DC01ED91FC9159
:1020A000068CF78DE02D09951F910F9108950F93E0
:1020B0001F93DC01ED91FC91048CF58DE02D0995C9
:1020C0001F910F910895DC01ED91FC910084F18541
:1020D000E02D09943F924F925F926F927F928F9280
:1020E0009F92AF92BF92CF92DF92EF92FF920F93A7
:1020F0001F93CF93DF935C017B014A016901390192
:1021000087E0680E711C93E0759467949A95E1F7E7
:102110002B01400E511E10E000E0312CD0E0C0E059
:10212000CE0187709927330C892B59F4FE0183E087
:10213000F595E7958A95E1F7E00FF11FE80DF91D98
:10214000349037FE0AC021E030E0A701B5016C0FE2
:102150007D1F8FE693E00E9463102196CC16DD066A
:10216000F9F68FEFE81AF80A060D171DE414F504C6
:10217000A9F6DF91CF911F910F91FF90EF90DF9023
:10218000CF90BF90AF909F908F907F906F905F9017
:102190004F903F9008952F923F924F925F926F928F
:1021A0007F928F929F92AF92BF92CF92DF92EF92E7
:1021B000FF920F931F93CF93DF9300D000D000D0F6
:1021C000CDB7DEB73C016A013E832D83FC82EB82F2
:1021D0005801A41AB50AB7FE03C0B194A194B1087E
:1021E0008D809E80861A970A97FE03C091948194F1
:1021F00091088A149B045CF0902F812F0D811E8121
:102200009D838E839C2D8D2D6B01692F782F0C154E
:102210001D055CF09D818E817E836D83692F782FF3
:10222000902F812F8601C92ED82E1601201A310A2F
:102230002B012D813E81421A530A57FE03C051944F
:1022400041945108710137FE03C03FEFE31AF30ACE
:10225000F594E7948D819E81861797075CF5A1E040
:10226000B0E0BA83A983C016D1064CF1D301ED9139
:10227000FC910484F585E02D2B813C81A8016D81C2
:102280007E818A149B041CF04D815E81B801C301DC
:102290000995E418F508F7FE0AC02D813E81898171
:1022A0009A81280F391F3E832D83E20CF31C0F5FA8
:1022B0001F4FD9CF2FEF3FEF3A832983D4CF2696F4
:1022C0000FB6F894DEBF0FBECDBFDF91CF911F9147
:1022D0000F91FF90EF90DF90CF90BF90AF909F90C5
:1022E0008F907F906F905F904F903F902F900895C8
:1022F000089520913D02260F3327331F21323105E7
:10230000ECF420916102FC0190E080E0243069F05F
:1023100082E00895A0913D022191AC01435E5D4FA2
:10232000A40FB52FB11D2C930196861798F38091B9
:102330003D02680F60933D0280E0089581E00895BA
:102340001092610281E0809363021092620261E068
:1023500082E10E94D10561E083E10E94D105E9EBB1
:10236000F0E080818E7F808380818D7F808388E410
:102370008093B80085E48093BC000895CF93DF93E9
:1023800091E090931C028823B9F0C091B800D091DD
:10239000BA008091BC008A7B8093BC0060E082E13F
:1023A0000E94D10560E083E10E94D1050E94A01146
:1023B000D093BA00C093B800DF91CF910895E09117
:1023C0008D0280918C02E81730F4F0E0E950FE4F66
:1023D000808190E008958FEF9FEF089590918D0296
:1023E00080918C022FEF3FEF981748F4E92FF0E02F
:1023F000E950FE4F208130E09F5F90938D02C9012C
:10240000089580918C0290918D02891B990B0895FB
:10241000CF92DF92EF92FF920F931F93CF93DF93B0
:102420007C01CB018A012091B402222389F0EB01C7
:102430006B01C40ED51ECC15DD0569F06991D7017D
:10244000ED91FC910190F081E02DC7010995F3CF4A
:10245000642F0E947911C801DF91CF911F910F91D4
:10246000FF90EF90DF90CF900895CF93DF931F926E
:10247000CDB7DEB769832091B4022223F9F0209111
:10248000B102203258F021E030E0FC013383228396
:1024900090E080E00F90DF91CF9108958091B2029B
:1024A000E82FF0E0E952FE4F998190838F5F80938F
:1024B000B2028093B10281E090E0ECCF61E0CE0106
:1024C00001960E947911F7CFCF92DF92EF92FF929F
:1024D0000F931F93CF93DF93D091B10281E0D1325C
:1024E00008F09CC0C091B3020E9490076B017C0170
:1024F0008091610281116CC082E08093610281E071
:10250000809363028FEF8093600210928502D093D4
:102510008402A7EDB1E0E4E6F2E080E0D8138DC0DC
:102520001092860280918602CC0FC82BC09386023F
:1025300080916202813009F084C0109262020E9490
:1025400090076B017C01809186028093BB00809193
:10255000180290911902A0911A02B0911B02892BC6
:102560008A2B8B2BA1F00E949007009118021091EA
:10257000190220911A0230911B026C197D098E09F3
:102580009F09061717072807390708F442C08091EA
:10259000BC0083FDD8CF85EC8093BC000E949007DF
:1025A0006B017C0180916102823009F44CC0809102
:1025B00060028F3F09F469C080916002803209F4A3
:1025C00066C080916002803309F463C084E026C055
:1025D0008091180290911902A0911A02B0911B02E9
:1025E000892B8A2B8B2B09F483CF0E9490070091B3
:1025F00018021091190220911A0230911B026C19D5
:102600007D098E099F09061717072807390708F063
:102610006FCF809117020E94BE1185E01092B20226
:102620001092B1021092B402DF91CF911F910F91DD
:10263000FF90EF90DF90CF9008959D9191938F5FE1
:102640006DCF85EEA9CF8091180290911902A091CB
:102650001A02B0911B02892B8A2B8B2B09F4A2CF73
:102660000E949007009118021091190220911A02FD
:1026700030911B026C197D098E099F0906171707F7
:102680002807390708F08ECFC4CF80E0C7CF82E09B
:10269000C5CF83E0C3CFEF92FF920F931F93CF93E9
:1026A000DF937C01C62F80918C0390918D0300975E
:1026B00009F459C02091900331E03093B402209383
:1026C000B3021092B2021092B102DC01ED91FC91C2
:1026D0000190F081E02D60E009958701EE24E394FC
:1026E000F12CD1E0C15080918C0390918D03CF3FAC
:1026F00091F1B0E2EB16F104D8F00E9464128091DF
:102700008C0390918D0320919003D093B402209379
:10271000B3021092B2021092B102DC01ED91FC9171
:102720000190F081E02D60E00995EE24E394F12C16
:1027300080918C0390918D03F8016491DC01ED91FF
:10274000FC910190F081E02D0995BFEFEB1AFB0A97
:102750000F5F1F4FC7CFDF91CF911F910F91FF9058
:10276000EF900C946412E0919C03F0919D03908192
:102770008091A2038095892380838701C15008F44A
:1027800038C0F801849120918A0330918B03232B68
:1027900029F00E94790B0F5F1F4FF0CF28E030E047
:1027A00040E8E0919803F09199039091A003582F8D
:1027B0005423D9F05081952B9083E0919A03F091A6
:1027C0009B0390815091A103952B9083E0919A03F4
:1027D000F0919B0350819091A10390959523908354
:1027E000469521503109E9F6D6CF50819095952331
:1027F000E3CFDF91CF911F910F91FF90EF9008955C
:102800001F93CF93DF93EC018D8D9E8D009721F167
:10281000162F29A131E03093B4022093B302109215
:10282000B2021092B102DC01ED91FC910190F081B5
:10283000E02D60E009958D8D9E8DDC01ED91FC9180
:102840000190F081E02D612F09958D8D9E8DDF9196
:10285000CF911F910C946412ADA5BEA59C918BA93C
:10286000809589238C938B8D9C8D892B31F0862FBD
:10287000DF91CF911F910C94790B28E030E080E834
:10288000A9A5BAA599A9462F4823C1F04C91942B2C
:102890009C93ABA5BCA59C914AA9942B9C93ABA5FA
:1028A000BCA54C919AA9909594239C938695215010
:1028B000310931F7DF91CF911F9108954C91909597
:1028C0009423E6CFDF92EF92FF920F931F93CF9363
:1028D000DF9380918C0390918D03892B09F4A5C01F
:1028E0002091A4033091A5034091A6035091A70322
:1028F00060E074E284EF90E00E94452120513109AC
:102900004109510956954795379527952093B80069
:1029100064E08CE69AE00E944B13809173039091DF
:1029200074038034910509F097C060E28FE693E06C
:102930000E94001460917303615E8FE693E00E9431
:1029400000142091750330917603C901079697FD15
:10295000079633E0959587953A95E1F720917303B3
:1029600030917403829F8001839F100D929F100D00
:102970001124C0918E03D0918F0380918C0390918C
:102980008D030C0F1D1F009709F498C02091900330
:1029900031E03093B4022093B3021092B20210924D
:1029A000B102DC01ED91FC910190F081E02D60E439
:1029B0000995EE24E394F12CDD24D39480918C03CB
:1029C00090918D030C171D0709F44FC0B0E2EB1670
:1029D000F104D8F00E94641280918C0390918D03D1
:1029E00020919003D092B4022093B3021092B202CD
:1029F0001092B102DC01ED91FC910190F081E02D8B
:102A000060E40995EE24E394F12C80918C0390917D
:102A10008D036991DC01ED91FC910190F081E02D35
:102A20000995BFEFEB1AFB0AC9CF80918A039091F9
:102A30008B03892B31F08091AD039091AE030E94FE
:102A4000800BE0919E03F0919F0390818091A303FE
:102A50008095892380835CCF60E08FE693E00E94BD
:102A6000001460917303615068CF0E9464128091DA
:102A70008C0390918D03892B09F461C02091A803E8
:102A80003091A9034091AA035091AB0360E074E236
:102A900084EF90E00E9445212051310941095109FC
:102AA00056954795379527952093B800DF91CF919C
:102AB0001F910F91FF90EF90DF900895E0919C039C
:102AC000F0919D0380819091A203892B80830C1744
:102AD0001D0769F2899120918A0330918B03232B82
:102AE00019F00E94790BF3CF28E030E040E8E09144
:102AF0009803F09199039091A003582F5423D9F093
:102B00005081952B9083E0919A03F0919B039081E3
:102B10005091A103952B9083E0919A03F0919B0330
:102B200050819091A10390959523908346952150D3
:102B30003109E9F6CCCF508190959523E3CFE09110
:102B40009E03F0919F0380819091A303892B808342
:102B5000ADCF1F93CF93DF93EC01162F8D8D9E8DFC
:102B6000892BB1F12DA93EA94FA958AD60E074E2BF
:102B700084EF90E00E94452120513109410951091B
:102B800056954795379527952093B80066EA111119
:102B900067EACE010E9400148D8D9E8D892B41F134
:102BA00029AD3AAD4BAD5CAD60E074E284EF90E0EE
:102BB0000E944521205131094109510956954795F7
:102BC000379527952093B800DF91CF911F910895F5
:102BD0008B8D9C8D892B21F08EAD9FAD0E94800B3B
:102BE000EFA5F8A990818CA9809589238083CECF09
:102BF000EFA5F8A980819CA9892B8083E5CF90E07F
:102C000080E0089580918E02882329F089E00E9457
:102C1000E90710928E02089546E950E060E070E006
:102C200080E793E00E943B0666E970E080E090E078
:102C30000E94B5074CE251E060E070E087E295E069
:102C40000C943B062091750330917603C9010796D9
:102C500097FD079623E0959587952A95E1F72091B2
:102C6000730330917403829FA001839F500D929F44
:102C7000500D112470E060E080918E0390918F03DD
:102C80000C94D0220E94CB22FB0101900020E9F796
:102C90003197AF01461B570BDC01ED91FC9102808F
:102CA000F381E02D09948F929F92AF92BF92CF92C1
:102CB000DF92EF92FF920F931F93CF93DF93CDB7E5
:102CC000DEB7A1970FB6F894DEBF0FBECDBF6C0183
:102CD000990FEE08FF08F7FE43C06DE28FE693E020
:102CE0000E94BE0D8C0122273327A9012C193D0912
:102CF0004E095F0919A2CE0181967C019AE0892EC6
:102D0000912CA12CB12CCA01B901A50194010E94FA
:102D10004521605DF70162937F0121153105410571
:102D2000510589F790E080E0309729F0BF018FE6E8
:102D300093E00E944416800F911FA1960FB6F8945D
:102D4000DEBF0FBECDBFDF91CF911F910F91FF90DE
:102D5000EF90DF90CF90BF90AF909F908F900895AD
:102D6000A701960119A28E010F5D1F4F8AE0C82EA0
:102D7000D12CE12CF12CCA01B901A70196010E94C6
:102D80004521605DF80162938F01211531054105F0
:102D9000510589F790E080E0309779F2BF018FE626
:102DA00093E00E944416C9CFCF93DF93BC018FE616
:102DB00093E00E944416EC0163E671E08FE693E035
:102DC0000E9444168C0F9D1FDF91CF9108958F9222
:102DD0009F92AF92BF92CF92DF92EF92FF920F93AA
:102DE0001F93CF93DF93C091A102D091A2021091C3
:102DF0009402209709F088C0809008019090090102
:102E0000A0900A01B0900B01882309F495C080922C
:102E1000000190920101A0920201B0920301D093AF
:102E2000D601C093D5011093D4010E94221681E0EF
:102E300090E090938203809381039093800380932A
:102E40007F0375016401C701B6012CE330E040E067
:102E500050E00E94672149016B018901EB0181E08B
:102E6000809383038093840310927C0310927B03EE
:102E700010927E0310927D038EE691E00E94D4169C
:102E800010927C0310927B038FE090E090937E037E
:102E900080937D038091A1029091A202009709F096
:102EA000B5C08DE791E00E94D41683E08093830340
:102EB0008093840384E190E090937C0380937B0370
:102EC00083E290E090937E0380937D030A301105A6
:102ED00034F460ED71E08FE693E00E944416C40183
:102EE0000E94531662ED71E08FE693E00E94441653
:102EF0002A9734F460ED71E08FE693E00E94441667
:102F0000C6010E94531674C0C130D10549F48090A7
:102F1000040190900501A0900601B090070174CFC4
:102F2000C0909902D0909A02E0909B02F0909C028F
:102F3000811129C046015701C0900001D0900101C4
:102F4000E0900201F0900301C814D904EA04FB04E4
:102F5000C1F48091D5019091D601C817D90799F491
:102F60008091D40181130FC0DF91CF911F910F91F8
:102F7000FF90EF90DF90CF90BF90AF909F908F9099
:102F8000089575016401C0920001D0920101E092A0
:102F90000201F0920301D093D601C093D5011093A2
:102FA000D4010E94221681E090E0909382038093E6
:102FB00081039093800380937F03229709F043CF8E
:102FC000112309F440CF23E020938303209384034B
:102FD00090937C0380937B0384E190E090937E0345
:102FE00080937D0366E671E08FE693E00E944416CD
:102FF000DF91CF911F910F91FF90EF90DF90CF90D5
:10300000BF90AF909F908F900C9462148130910587
:1030100019F48EE891E047CF8230910519F480EAE7
:1030200091E041CF8330910519F480EB91E03BCFE3
:103030000497029708F039CF81EC91E034CF1092D9
:10304000A2021092A102109294020E94021681E044
:103050000C94E71685ED8093BC0080911802909146
:103060001902A0911A02B0911B020796A11DB11D71
:1030700023E0B695A795979587952A95D1F7209146
:10308000BC0024FD03C01092610208954091180213
:103090005091190260911A0270911B02452B462B28
:1030A000472B69F30097A105B10541F02AE22A9563
:1030B000F1F700C00197A109B109E1CF8091170292
:1030C0000C94BE111F920F920FB60F9211242F93E2
:1030D0003F938F939F93AF93BF938091A902909159
:1030E000AA02A091AB02B091AC023091A80223E0F9
:1030F000230F2D3758F50196A11DB11D2093A8026D
:103100008093A9029093AA02A093AB02B093AC0261
:103110008091AD029091AE02A091AF02B091B00249
:103120000196A11DB11D8093AD029093AE02A093B4
:10313000AF02B093B002BF91AF919F918F913F9139
:103140002F910F900FBE0F901F90189526E8230F18
:103150000296A11DB11DD2CF1F920F920FB60F92F2
:1031600011242F933F934F935F936F937F938F938C
:103170009F93AF93BF93EF93FF938091BA02909187
:10318000BB02A091BC02B091BD02892B8A2B8B2B74
:10319000D1F19091B502E091B602F091B702808131
:1031A000892780838091BA029091BB02A091BC02D2
:1031B000B091BD02181619061A061B069CF48091E0
:1031C000BA029091BB02A091BC02B091BD020197DE
:1031D000A109B1098093BA029093BB02A093BC02EB
:1031E000B093BD02FF91EF91BF91AF919F918F91ED
:1031F0007F916F915F914F913F912F910F900FBEF3
:103200000F901F90189580910C010E94E907EACF5A
:103210001F920F920FB60F9211242F933F934F934B
:103220005F936F937F938F939F93AF93BF93EF932E
:10323000FF9386EC92E00E949308FF91EF91BF917B
:10324000AF919F918F917F916F915F914F913F913E
:103250002F910F900FBE0F901F9018951F920F92F5
:103260000FB60F9211242F938F939F93EF93FF9399
:10327000E091D602F091D7028081E091DC02F091DA
:10328000DD0282FD1BC090818091DF028F5F8F7312
:103290002091E002821741F0E091DF02F0E0EA5372
:1032A000FD4F958F8093DF02FF91EF919F918F915A
:1032B0002F910F900FBE0F901F9018958081F4CF23
:1032C0001F920F920FB60F9211242F933F934F939B
:1032D0005F936F937F938F939F93AF93BF93EF937E
:1032E000FF938091B900887F803609F44AC0F0F5D9
:1032F000883209F4A7C018F5803109F49BC0B8F4EE
:10330000882309F4F9C0883009F494C0FF91EF9143
:10331000BF91AF919F918F917F916F915F914F91ED
:103320003F912F910F900FBE0F901F9018958831ED
:1033300009F488C0803251F78093600214C0803451
:1033400009F49DC040F48033B9F38833F9F68093D3
:10335000600285ECB0C0803509F485C0883509F479
:1033600096C0883499F60E942A18D0CF883909F47B
:103370008CC038F5883729F050F4883611F0803742
:1033800029F683E08093610210925F0257C088386B
:1033900009F47BC0803919F0803809F0B7CF8091EB
:1033A0005F02803208F071C0E0915F0281E08E0F11
:1033B00080935F028091BB00F0E0E15CFD4F808371
:1033C0003DC0803B39F0E0F4803A09F479C0883A96
:1033D00009F09CCF84E08093610210923E0210922B
:1033E0003D02E0918A02F0918B02099580913D02A5
:1033F00081110FC081E080933D0210921D0209C02F
:10340000803C09F4A6CF883C09F4A3CF883B09F09F
:103410007DCFE0913E0281E08E0F80933E02F0E08E
:10342000E35EFD4F80818093BB0090913E028091CE
:103430003D0229C0809186028093BB0085EC809379
:10344000BC0064CF9091850280918402981758F552
:10345000E091850281E08E0F80938502F0E0EC59C7
:10346000FD4F8081E9CFE091850281E08E0F80934E
:1034700085028091BB00F0E0EC59FD4F8083909174
:103480008502809184029817C8F285E8D8CFE09130
:10349000850281E08E0F809385028091BB00F0E071
:1034A000EC59FD4F80838091630281115CCF81E0F4
:1034B0008093620284EA8093BC001092610226CF5E
:1034C00085EC8093BC001092610280915F02803293
:1034D00030F4E0915F02F0E0E15CFD4F108260911A
:1034E0005F0270E0E0918802F09189028FE392E040
:1034F000099510925F020ACF1092600234CFCF92EA
:10350000DF92EF92FF920F931F93E82FF92F05C0E0
:10351000015011092109310961F190819623941715
:10352000B9F305C0015011092109310911F1908148
:1035300096239413F7CFC12CD12CE12CF12C0AC087
:103540008FEFC81AD80AE80AF80A0C151D052E05CF
:103550003F0579F080818623841791F36C2D7D2DB2
:103560008E2D9F2D1F910F91FF90EF90DF90CF90A8
:10357000089560E070E080E090E01F910F91FF906F
:10358000EF90DF90CF900895E6ECF2E01382128284
:1035900048EE53E060E070E04483558366837783B0
:1035A00087E191E09183808385EC90E09587848723
:1035B00084EC90E09787868780EC90E0918B808BFD
:1035C00081EC90E0938B828B82EC90E0958B848BE6
:1035D00086EC90E0978B868B118E128E138E148E54
:1035E000A3E6B3E013961C921E92129714964D9385
:1035F0005D936D937C93179789E291E011969C936C
:103600008E93EFE6F3E01382128220E830E03583F8
:10361000248380E490E09783868331872087938793
:103620008287168A158614861786168681E0858B12
:10363000848B2FEF3FEF338B228B318B208B878B4B
:10364000108E128E118E8BE391E091838083148E05
:10365000138EB68FA58F10A2178E8FEF84A385A32C
:1036600086A387A380A780E89AE1A6E0B0E085ABB7
:1036700096ABA7ABB0AF80EA96E8A1E0B0E081AF2F
:1036800092AFA3AFB4AF80E586AF17AE089578943C
:1036900084B5826084BD84B5816084BD85B5826057
:1036A00085BD85B5816085BD80916E008160809308
:1036B0006E00109281008091810082608093810071
:1036C0008091810081608093810080918000816081
:1036D000809380008091B10084608093B1008091DC
:1036E000B00081608093B00080917A008460809304
:1036F0007A0080917A00826080937A0080917A00CB
:10370000816080937A0080917A00806880937A004B
:103710001092C100E091D602F091D70282E080833E
:10372000E091D202F091D3021082E091D402F091A4
:10373000D50280E180831092DE02E091DA02F091FE
:10374000DB0286E08083E091D802F091D90280818B
:1037500080618083E091D802F091D90280818860F5
:103760008083E091D802F091D902808180688083C3
:10377000E091D802F091D90280818F7D8083809181
:103780008E0390918F03892B11F10E9422162091B4
:103790007503309176038091730390917403213205
:1037A00031050CF04AC0B9016052710977FF02C0BF
:1037B0006F5F7F4F759567958357910997FD0196C8
:1037C00000E210E023E730E04AE855E049C02091EC
:1037D000750330917603C901079697FD0796B3E00C
:1037E00095958795BA95E1F720917303309174030D
:1037F000AC01429FC001439F900D529F900D112438
:103800000E94A62190938F0380938E03892B09F049
:10381000BCCFCAE2DAE0FE016491662339F086EC9F
:1038200092E00E94B5082196892BA9F763E671E022
:1038300086EC92E00E944416FFCFB90160547109F2
:1038400077FF02C06F5F7F4F75956795825591092D
:1038500097FD019600E410E022E530E04AE657E0EB
:10386000959587950E946A1082E0809391038091DC
:103870008C0390918D03892B09F494C08CE3809381
:10388000900310928D0210928C021092B20210924C
:10389000B1020E94A01187EE97E090938B02809373
:1038A0008A0288EE97E09093890280938802809143
:1038B000970387FD1EC061E00E94FF0561E08091D3
:1038C00097030E94D10561E070E080E090E00E94E3
:1038D000B50760E0809197030E94D1056AE070E02F
:1038E00080E090E00E94B50761E0809197030E941C
:1038F000D10580918C0390918D03892B09F411C11E
:103900002091A4033091A5034091A6035091A703F1
:1039100060E074E284EF90E00E944521205131097B
:103920004109510956954795379527952093B80039
:1039300064E086E895E00E944B1360917503615046
:103940008FE693E00E94001464E082E895E00E9414
:103950004B138091910364E1813009F460E18FE6BB
:1039600093E00E94001464E08EE795E00E944B1300
:103970008FE88093AC038091730390917403803837
:10398000910509F089C18091750390917603803487
:10399000910509F091C180919103813009F4D8C05B
:1039A0008FECD7C061E0809195030E94FF0561E034
:1039B000809196030E94FF0580919503082E000CCC
:1039C000990BFC01E257F54FE491F0E0EE0FFF1F79
:1039D000EC57F54F2591349130939D0320939C0330
:1039E000FC01E059F54FE491E093A2038091960326
:1039F000082E000C990BFC01E257F54FE491F0E022
:103A0000EE0FFF1FEC57F54FA591B491B0939F03B4
:103A1000A0939E03FC01E059F54FE491E093A303CA
:103A20008C91E82BEC9380918A0390918B03892BE6
:103A300009F434C0CFB7F89480918702811127C070
:103A4000E8E9FAE08491EAE7FAE09491E82FF0E0FF
:103A5000EE0FFF1FEC5BF54FA591B491EC91E923BC
:103A600021F461E08AE00E94D10561E08AE00E94D1
:103A7000FF058CB580618CBD8CB580648CBD61E028
:103A80008DE00E94FF0561E08BE00E94FF058091C0
:103A900087028F5F80938702CFBF09CF61E080915B
:103AA00093030E94FF0561E0809194030E94FF054B
:103AB00080919303082E000C990BFC01E257F54FFF
:103AC000E491F0E0EE0FFF1FEC57F54F2591349194
:103AD0003093990320939803FC01E059F54FE4914A
:103AE000E093A00380919403082E000C990BFC0135
:103AF000E257F54FE491F0E0EE0FFF1FEC57F54F62
:103B0000A591B491B0939B03A0939A03FC01E05953
:103B1000F54FE491E093A1038C91E095E823EC93B9
:103B2000C6CE80918A0390918B03892B31F08091CE
:103B3000AD039091AE030E94800BE0919E03F09143
:103B40009F0390818091A303809589238083F0CE89
:103B50008FE98093AC03C2E16AED8FE693E00E94A7
:103B600000146C2F8FE693E00E94001461E88FE64A
:103B700093E00E9400146091AC038FE693E00E94F2
:103B8000001469ED8FE693E00E9400148091910388
:103B900061EF813009F462E28FE693E00E94001445
:103BA00066E088E795E00E944B1380918C0390912A
:103BB0008D03892B09F494C02091A8033091A903A7
:103BC0004091AA035091AB0360E074E284EF90E06F
:103BD0000E944521205131094109510956954795C7
:103BE000379527952093B80062E082E00E94FF0598
:103BF00062E083E00E94FF0562E084E00E94FF052E
:103C000061E08AE00E94FF0560E08BE00E94FF0512
:103C100061E089E00E94FF0581E00E94E71623E051
:103C2000E22EF12CC2E0D0E05524539422242394B8
:103C3000312C8FB7F8948090A9029090AA02A0909E
:103C4000AB02B090AC028FBF82E00E94A8056C016D
:103C500084E00E94A8058C0183E00E94A8054091A1
:103C6000A4025091A5026091A6027091A702892B2F
:103C700009F096C04115510561057105D9F580928D
:103C8000A4029092A502A092A602B092A70210925E
:103C9000A302612C712C42C08036910589F4809179
:103CA000750390917603409739F4809191038130A8
:103CB00029F08FEA8093AC03C2E04ECF80E1FACFC7
:103CC00080349105C9F780917503909176038097B0
:103CD00099F780919103813009F062CE80E139CF6C
:103CE000E0919E03F0919F0380819091A303892B23
:103CF00080837ACF7090A3027110CBCFD501C4011D
:103D0000841B950BA60BB70B893E9340A105B1050B
:103D100008F465C05092A302662463948091A102C6
:103D20009091A202009709F090C0CD2809F059C0E7
:103D300080919D0290919E02A0919F02B091A0025D
:103D4000A5019401281B390B4A0B5B0BDA01C90151
:103D5000893C9105A105B10508F46CC0809108016A
:103D600090910901A0910A01B0910B0180313EE0D0
:103D70009307A105B1055CF4CC96A11DB11D8093FC
:103D8000080190930901A0930A01B0930B0180925E
:103D90009D0290929E02A0929F02B092A00251C0FA
:103DA000411551056105710509F473CF8091A30296
:103DB00081110CC0D501C401841B950BA60BB70B58
:103DC00077247394C397A105B10508F4712C109260
:103DD000A4021092A5021092A6021092A702612CD2
:103DE0009DCF012B39F580919D0290919E02A0916B
:103DF0009F02B091A002A5019401281B390B4A0B28
:103E00005B0BDA01C901893C9105A105B10590F070
:103E10008091080190910901A0910A01B0910B01D4
:103E20008D339105A105B1050CF4B1CFCC97A10953
:103E3000B109A5CF772009F484C13092A202209263
:103E4000A10281E00E94E7167CC18130910509F052
:103E500080C0CD2889F580919D0290919E02A0910D
:103E60009F02B091A002A5019401281B390B4A0BB7
:103E70005B0BDA01C901893C9105A105B10508F484
:103E800044C08091040190910501A0910601B09178
:103E90000701883037E09307A105B1050CF077CF13
:103EA000CC96A11DB11D8093040190930501A093B0
:103EB0000601B09307016BCF012B39F580919D026C
:103EC00090919E02A0919F02B091A002A501940141
:103ED000281B390B4A0B5B0BDA01C901893C9105A0
:103EE000A105B10590F08091040190910501A09188
:103EF0000601B09107018D339105A105B1050CF4C0
:103F000046CFCC97A109B109CECF772009F419C1CA
:103F1000D093A202C093A10280910801909109015F
:103F2000A0910A01B0910B018093990290939A029B
:103F3000A0939B02B0939C0280929502909296026D
:103F4000A0929702B0929802109294020E940C16CE
:103F500078CF8230910509F001C160E08AE00E94CB
:103F6000D10583E090E00197F1F761E08AE00E94DB
:103F7000D10583E290E00197F1F760E08AE00E94CA
:103F8000D105EBE7FAE06491E9E9FAE08491E82FE2
:103F9000F0E0EE0FFF1FE25BF54F8591949108E88A
:103FA00013E120E030E0462F0E947F1A6115710571
:103FB0008105910529F06F5F7F4F8F4F9F4F9F7055
:103FC0006150710981099109673773408105910535
:103FD00008F04DC05092940280919402882309F415
:103FE0004CC08092950290929602A0929702B09255
:103FF000980280E00E94E7168091900290919102D1
:10400000A0919202B0919302A5019401281B390B53
:104010004A0B5B0BDA01C90186399105A105B1058F
:10402000C0F08092900290929102A0929202B0927F
:10403000930280918F0240E050E0BA018525809381
:104040008F028823B9F088EB9BE00E943B065092D8
:104050008E02772009F472C044E050E05093A2022F
:104060004093A1020E94021610929402EACE10928E
:104070009402B2CF88EE93E0E8CF0E9402168091BE
:10408000950290919602A0919702B0919802881A99
:10409000990AAA0ABB0A38EE831633E09306A104F4
:1040A000B104B8F288519C4FAF4FBF4F8093950237
:1040B00090939602A0939702B093980280919902F0
:1040C00090919A02A0919B02B0919C020197A10944
:1040D000B1098093990290939A02A0939B02B093A6
:1040E0009C0280E00E94E7168091990290919A02CA
:1040F000A0919B02B0919C02181619061A061B0685
:104100000CF4A7CFF092A202E092A10280910401E8
:1041100090910501A0910601B09107018093990249
:1041200090939A02A0939B02B0939C0210929402E7
:104130000E940C1681E00E94E7168BCF61100E944E
:104140001F18E0E0F0E0EF2B09F473CD0E947F0828
:10415000882309F469CD0E94000066CD8330910563
:1041600009F066C08091950290919602A091970205
:10417000B0919802881A990AAA0ABB0A58EE8516C5
:1041800053E09506A104B10408F448C088519C4F3F
:10419000AF4FBF4F8093950290939602A0939702E2
:1041A000B09398028091990290919A02A0919B02FB
:1041B000B0919C020197A109B10980939902909353
:1041C0009A02A0939B02B0939C0280E00E94E716A3
:1041D0008091990290919A02A0919B02B0919C02C9
:1041E000181619061A061B06CCF0D093A202C0932B
:1041F000A1028091080190910901A0910A01B0915A
:104200000B018093990290939A02A0939B02B09322
:104210009C020E940C1681E00E94E716772009F4A8
:104220008DCF85E090E09093A2028093A10209CE09
:104230008430910581F4772009F480CFD093A202D5
:10424000C093A1028092950290929602A09297024A
:10425000B0929802F6CD059709F073CF772009F454
:104260006DCFF092A202E092A102ECCF8BE391E03D
:104270009093700380936F0380918E0390918F03CE
:10428000009711F00C9442220895A1E21A2EAA1B65
:10429000BB1BFD010DC0AA1FBB1FEE1FFF1FA217F6
:1042A000B307E407F50720F0A21BB30BE40BF50BF3
:1042B000661F771F881F991F1A9469F7609570957C
:1042C000809590959B01AC01BD01CF010895052E0D
:1042D00097FB1EF400940E947E2157FD07D00E9498
:1042E000452107FC03D04EF40C947E215095409557
:1042F000309521953F4F4F4F5F4F08959095809592
:10430000709561957F4F8F4F9F4F08950E94972121
:10431000A59F900DB49F900DA49F800D911D112419
:104320000895EE0FFF1F0590F491E02D0994A29FD0
:10433000B001B39FC001A39F700D811D1124911D79
:10434000B29F700D811D1124911D08950F931F932D
:10435000CF93DF938230910510F482E090E0E091FA
:10436000B103F091B20330E020E0B0E0A0E030977C
:1043700099F42115310509F44AC0281B390B243062
:104380003105D8F58A819B816115710589F1FB01A1
:1043900093838283FE0111C0408151810281138188
:1043A00048175907E0F04817590799F4109761F03A
:1043B00012960C93129713961C933296CF01DF91AD
:1043C000CF911F910F9108950093B1031093B20301
:1043D000F4CF2115310551F04217530738F0A901E8
:1043E000DB019A01BD01DF01F801C1CFEF01F9CF77
:1043F0009093B2038093B103CDCFFE01E20FF31F80
:10440000819391932250310939832883D7CF20910A
:10441000AF033091B003232B41F420910F01309171
:1044200010013093B0032093AF0320910D01309120
:104430000E012115310541F42DB73EB74091110110
:1044400050911201241B350BE091AF03F091B003A2
:10445000E217F307A0F42E1B3F0B2817390778F05B
:10446000AC014E5F5F4F2417350748F04E0F5F1FBA
:104470005093B0034093AF03819391939FCFF0E0AB
:10448000E0E09CCFCF93DF930097E9F0FC013297F7
:1044900013821282A091B103B091B203ED0130E01A
:1044A00020E01097A1F420813181820F931F209189
:1044B000AF033091B0032817390709F061C0F093BA
:1044C000B003E093AF03DF91CF910895EA01CE17D7
:1044D000DF07E8F54A815B819E0141155105B1F77F
:1044E000E901FB83EA8349915991C40FD51FEC1769
:1044F000FD0761F4808191810296840F951FE90187
:1045000099838883828193819B838A83F0E0E0E0B2
:1045100012968D919C9113970097B9F52D913C912E
:104520001197CD010296820F931F2091AF03309116
:10453000B0032817390739F6309751F51092B203B6
:104540001092B103B093B003A093AF03BCCFD38359
:10455000C28340815181840F951FC817D90761F428
:104560004E5F5F4F88819981480F591F5183408367
:104570008A819B81938382832115310509F0B0CF15
:10458000F093B203E093B1039ECFFD01DC01C0CFF5
:1045900013821282D7CF81E090E0F8940C94D72256
:1045A000DC0101C06D9341505040E0F7089515E0E3
:1045B000C3E5D5E004C0FE010E9491212196C435D7
:0845C000D107C9F7F894FFCF01
:1045C800FFFFFFFF2C010000DC050000FF0000B327
:1045D80003800000000000B50815084208020973AE
:1045E80008510865080000000035120812FF157E02
:1045F800050112EE11DF1100000000BE0D1508FFC5
:10460800157811C90A7E0563103B1057104B10CB63
:10461800107E05840BA915390A820A840F670FEFEB
:104628000E900E0D0A00464F435553202100506F3F
:104638006D6F646F726F2054696D65720053657495
:1046480075703A20574F524B2054494D45005365D9
:104658007475703A20425245414B2054494D4500EB
:104668005374617475733A20464F4355534544005B
:104678005374617475733A2052454C41582E2E2E4E
:10468800005374617475733A205041555345440082
:0446980030003A00B4
:00000001FF
